{
  "contractName": "TaskList",
  "abi": [
    {
      "constant": true,
      "inputs": [],
      "name": "task_count",
      "outputs": [
        {
          "internalType": "uint8",
          "name": "",
          "type": "uint8"
        }
      ],
      "payable": false,
      "stateMutability": "view",
      "type": "function"
    },
    {
      "constant": true,
      "inputs": [
        {
          "internalType": "uint256",
          "name": "",
          "type": "uint256"
        }
      ],
      "name": "tasks",
      "outputs": [
        {
          "internalType": "contract Task",
          "name": "",
          "type": "address"
        }
      ],
      "payable": false,
      "stateMutability": "view",
      "type": "function"
    },
    {
      "constant": false,
      "inputs": [
        {
          "internalType": "uint8",
          "name": "_id",
          "type": "uint8"
        },
        {
          "internalType": "string",
          "name": "_title",
          "type": "string"
        },
        {
          "internalType": "string",
          "name": "_description",
          "type": "string"
        }
      ],
      "name": "createTask",
      "outputs": [],
      "payable": false,
      "stateMutability": "nonpayable",
      "type": "function"
    }
  ],
  "bytecode": "0x60806040526000805460ff1916905534801561001a57600080fd5b506116f08061002a6000396000f3fe608060405234801561001057600080fd5b50600436106100415760003560e01c80638d97767214610046578063b34352511461007f578063e179717f1461009d575b600080fd5b6100636004803603602081101561005c57600080fd5b50356101d6565b604080516001600160a01b039092168252519081900360200190f35b6100876101f1565b6040805160ff9092168252519081900360200190f35b6101d4600480360360608110156100b357600080fd5b60ff82351691908101906040810160208201356401000000008111156100d857600080fd5b8201836020820111156100ea57600080fd5b8035906020019184600183028401116401000000008311171561010c57600080fd5b91908080601f016020809104026020016040519081016040528093929190818152602001838380828437600092019190915250929594936020810193503591505064010000000081111561015f57600080fd5b82018360208201111561017157600080fd5b8035906020019184600183028401116401000000008311171561019357600080fd5b91908080601f0160208091040260200160405190810160405280939291908181526020018383808284376000920191909152509295506101fa945050505050565b005b6001602052600090815260409020546001600160a01b031681565b60005460ff1681565b600083838360405161020b90610350565b60ff84168152606060208083018281528551928401929092528451604084019160808501919087019080838360005b8381101561025257818101518382015260200161023a565b50505050905090810190601f16801561027f5780820380516001836020036101000a031916815260200191505b50838103825284518152845160209182019186019080838360005b838110156102b257818101518382015260200161029a565b50505050905090810190601f1680156102df5780820380516001836020036101000a031916815260200191505b5095505050505050604051809103906000f080158015610303573d6000803e3d6000fd5b506000805460ff198116600160ff9283168101831691909117835596168152602095909552604090942080546001600160a01b0319166001600160a01b0390951694909417909355505050565b61135e8061035e8339019056fe6101e060405260006080908152600160a052600260c0819052600360e05260046101005260056101205260066101405260076101605260086101805260096101a052600a6101c0526200005491600b620003fe565b503480156200006257600080fd5b506040516200135e3803806200135e833981810160405260608110156200008857600080fd5b815160208301805160405192949293830192919084640100000000821115620000b057600080fd5b908301906020820185811115620000c657600080fd5b8251640100000000811182820188101715620000e157600080fd5b82525081516020918201929091019080838360005b8381101562000110578181015183820152602001620000f6565b50505050905090810190601f1680156200013e5780820380516001836020036101000a031916815260200191505b50604052602001805160405193929190846401000000008211156200016257600080fd5b9083019060208201858111156200017857600080fd5b82516401000000008111828201881017156200019357600080fd5b82525081516020918201929091019080838360005b83811015620001c2578181015183820152602001620001a8565b50505050905090810190601f168015620001f05780820380516001836020036101000a031916815260200191505b50604052506200020b9150506001600160e01b03620003f916565b600080546001600160a01b0319166001600160a01b0392831617908190556040805191909216815290517f4101e71e974f68df5e9730cc223280b41654676bbb052cdcc735c3337e64d2d9916020908290030190a16003805460ff191660ff8516179055815162000284906004906020850190620004ab565b5080516200029a906005906020840190620004ab565b506006805460ff191690556009805460018101825560008281527f6e1540171b6c0c960b71a7020d9f60077f6af931a8bbf590da0223dacf75c7af90910180546001600160a01b031916331790556040805160ff871681529081018290526080602080830182815287519284019290925286517fed590dc695d4f7e656b37899068d46e3eafc741b38eb6a6761d919deba842bc69589958995909491939092606084019160a0850191908801908083838a5b83811015620003665781810151838201526020016200034c565b50505050905090810190601f168015620003945780820380516001836020036101000a031916815260200191505b508381038252848181548152602001915080548015620003de57602002820191906000526020600020905b81546001600160a01b03168152600190910190602001808311620003bf575b5050965050505050505060405180910390a15050506200056a565b335b90565b82805482825590600052602060002090601f01602090048101928215620004995791602002820160005b838211156200046857835183826101000a81548160ff021916908360ff160217905550926020019260010160208160000104928301926001030262000428565b8015620004975782816101000a81549060ff021916905560010160208160000104928301926001030262000468565b505b50620004a79291506200052c565b5090565b828054600181600116156101000203166002900490600052602060002090601f016020900481019282601f10620004ee57805160ff19168380011785556200051e565b828001600101855582156200051e579182015b828111156200051e57825182559160200191906001019062000501565b50620004a79291506200054d565b620003fb91905b80821115620004a757805460ff1916815560010162000533565b620003fb91905b80821115620004a7576000815560010162000554565b610de4806200057a6000396000f3fe6080604052600436106100f35760003560e01c8063b7ab4db51161008a578063e1e2955811610059578063e1e29558146100f8578063e3a9db1a1461031b578063ef9849691461034e578063f340fa0114610363576100f3565b8063b7ab4db51461024a578063c6dbdf61146102af578063dcbc5644146102e0578063dce59c00146102e8576100f3565b806351cff8d9116100c657806351cff8d9146101b15780636809691a146101e45780637a40bbef146100f8578063806ad57e14610217576100f3565b80631bf6912d146100f85780632348238c14610124578063484ee2c4146101575780634d238c8e1461017e575b600080fd5b34801561010457600080fd5b506101226004803603602081101561011b57600080fd5b5035610389565b005b34801561013057600080fd5b506101226004803603602081101561014757600080fd5b50356001600160a01b031661038c565b34801561016357600080fd5b5061016c610484565b60408051918252519081900360200190f35b34801561018a57600080fd5b50610122600480360360208110156101a157600080fd5b50356001600160a01b0316610502565b3480156101bd57600080fd5b50610122600480360360208110156101d457600080fd5b50356001600160a01b0316610623565b3480156101f057600080fd5b506101226004803603602081101561020757600080fd5b50356001600160a01b031661070a565b34801561022357600080fd5b506101226004803603602081101561023a57600080fd5b50356001600160a01b03166107d4565b34801561025657600080fd5b5061025f6108f5565b60408051602080825283518183015283519192839290830191858101910280838360005b8381101561029b578181015183820152602001610283565b505050509050019250505060405180910390f35b3480156102bb57600080fd5b506102c4610957565b604080516001600160a01b039092168252519081900360200190f35b610122610966565b3480156102f457600080fd5b506101226004803603602081101561030b57600080fd5b50356001600160a01b0316610a27565b34801561032757600080fd5b5061016c6004803603602081101561033e57600080fd5b50356001600160a01b0316610a49565b34801561035a57600080fd5b50610122610a64565b6101226004803603602081101561037957600080fd5b50356001600160a01b0316610acf565b50565b6000546001600160a01b03166103a0610ba9565b6001600160a01b0316146103e55760405162461bcd60e51b815260040180806020018281038252602c815260200180610d5e602c913960400191505060405180910390fd5b6001600160a01b03811661042a5760405162461bcd60e51b815260040180806020018281038252602a815260200180610d34602a913960400191505060405180910390fd5b600080546001600160a01b0319166001600160a01b03838116919091179182905560408051929091168252517f4101e71e974f68df5e9730cc223280b41654676bbb052cdcc735c3337e64d2d9916020908290030190a150565b600b54604080516371d4ed8d60e11b81526001600160a01b03909216600483015251600091309163e3a9db1a91602480820192602092909190829003018186803b1580156104d157600080fd5b505afa1580156104e5573d6000803e3d6000fd5b505050506040513d60208110156104fb57600080fd5b5051905090565b6000805b60095460ff8216101561054c5760098160ff168154811061052357fe5b6000918252602090912001546001600160a01b031633141561054457600191505b600101610506565b5060018115151461058e5760405162461bcd60e51b8152600401808060200182810382526026815260200180610d8a6026913960400191505060405180910390fd5b600980546001810182556000919091527f6e1540171b6c0c960b71a7020d9f60077f6af931a8bbf590da0223dacf75c7af0180546001600160a01b0319166001600160a01b0384169081179091556003546040805160ff9092168252602082019290925281517f3a092f075833e4228e6f48d3dcbc28cdb68d243278dcd79cfaa17473e2f60140929181900390910190a15050565b6000546001600160a01b0316610637610ba9565b6001600160a01b03161461067c5760405162461bcd60e51b815260040180806020018281038252602c815260200180610d5e602c913960400191505060405180910390fd5b6001600160a01b038116600081815260016020526040808220805490839055905190929183156108fc02918491818181858888f193505050501580156106c6573d6000803e3d6000fd5b506040805182815290516001600160a01b038416917f7084f5476618d8e60b11ef0d7d3f06914655adb8793e28ff7f018d4c76d505d5919081900360200190a25050565b6000546001600160a01b031661071e610ba9565b6001600160a01b0316146107635760405162461bcd60e51b815260040180806020018281038252602c815260200180610d5e602c913960400191505060405180910390fd5b6001600160a01b0381166000818152600160205260408120805491905590610791908263ffffffff610bad16565b6040805182815290516001600160a01b038416917f7084f5476618d8e60b11ef0d7d3f06914655adb8793e28ff7f018d4c76d505d5919081900360200190a25050565b6000805b60095460ff8216101561081e5760098160ff16815481106107f557fe5b6000918252602090912001546001600160a01b031633141561081657600191505b6001016107d8565b506001811515146108605760405162461bcd60e51b8152600401808060200182810382526026815260200180610d8a6026913960400191505060405180910390fd5b600a80546001810182556000919091527fc65a7bb8d6351c1cf70c95a316cc6a92839c986682d98bc35f958f4883f9d2a80180546001600160a01b0319166001600160a01b0384169081179091556003546040805160ff9092168252602082019290925281517ff26e6157384e61a32703387ba4422727904864dcf0e0beea4b607d11a0067649929181900390910190a15050565b6060600980548060200260200160405190810160405280929190818152602001828054801561094d57602002820191906000526020600020905b81546001600160a01b0316815260019091019060200180831161092f575b5050505050905090565b6000546001600160a01b031690565b600b546040805163f340fa0160e01b81526001600160a01b03909216600483015251309163f340fa0191349160248082019260009290919082900301818588803b1580156109b357600080fd5b505af11580156109c7573d6000803e3d6000fd5b5050600354600b546040805160ff90931683523360208401526001600160a01b0390911682820152346060830152517fcda5eeafa952e3fdd7a0e022ea09c83508806df2b916c7b784ea0dfb7bc2da2c94509081900360800192509050a1565b600b80546001600160a01b0319166001600160a01b0392909216919091179055565b6001600160a01b031660009081526001602052604090205490565b6006805460ff1916600117908190556003805460405160ff9182168082527f7297a3ecec23f9c0ce7ae4bb6605545c7270ad1985ee7f625c426ea8325356b994909392169160208201908390811115610ab957fe5b60ff1681526020019250505060405180910390a1565b6000546001600160a01b0316610ae3610ba9565b6001600160a01b031614610b285760405162461bcd60e51b815260040180806020018281038252602c815260200180610d5e602c913960400191505060405180910390fd5b6001600160a01b0381166000908152600160205260409020543490610b53908263ffffffff610c9816565b6001600160a01b038316600081815260016020908152604091829020939093558051848152905191927f2da466a7b24304f47e87fa2e1e5a81b9831ce54fec19055ce277ca2f39ba42c492918290030190a25050565b3390565b3031811115610c03576040805162461bcd60e51b815260206004820152601d60248201527f416464726573733a20696e73756666696369656e742062616c616e6365000000604482015290519081900360640190fd5b6040516000906001600160a01b0384169083908381818185875af1925050503d8060008114610c4e576040519150601f19603f3d011682016040523d82523d6000602084013e610c53565b606091505b5050905080610c935760405162461bcd60e51b815260040180806020018281038252603a815260200180610cfa603a913960400191505060405180910390fd5b505050565b600082820183811015610cf2576040805162461bcd60e51b815260206004820152601b60248201527f536166654d6174683a206164646974696f6e206f766572666c6f770000000000604482015290519081900360640190fd5b939250505056fe416464726573733a20756e61626c6520746f2073656e642076616c75652c20726563697069656e74206d617920686176652072657665727465645365636f6e646172793a206e6577207072696d61727920697320746865207a65726f20616464726573735365636f6e646172793a2063616c6c6572206973206e6f7420746865207072696d617279206163636f756e7463616c6c6572206973206e6f7420612076616c696461746f72206f662074686973207461736ba265627a7a72315820db49f492831d07b54a471ca4c0f4c1efd27453d477cd988ffeff4d5441dda58f64736f6c634300050c0032a265627a7a7231582013a7b619d54cb460a6e2517b2cd03b325d6cf033c52202713f0d0dbc19fdf47464736f6c634300050c0032",
  "source": "pragma solidity ^0.5.11;\n\nimport './Task.sol';\n\ncontract TaskList{\n\n    uint8 public task_count = 0;\n\n    mapping(uint => Task) public tasks;\n\n    function createTask(uint8 _id, string memory _title, string memory _description) public {\n        Task task = new Task({_id: _id, _title: _title, _description: _description});\n        task_count++;\n        tasks[_id] = task;\n    }\n\n}",
  "sourcePath": "/Users/pabrasey/Dropbox/01_Formation/ETHZ/01_Master/02_Projects/Master Thesis/Production/Code/ipd-tasks/contracts/TaskList.sol",
  "compiler": {
    "name": "solc",
    "version": "0.5.12+commit.7709ece9.Emscripten.clang"
  },
  "schemaVersion": "3.0.19",
  "updatedAt": "2019-12-05T11:18:46.230Z",
  "devdoc": {
    "methods": {}
  },
  "userdoc": {
    "methods": {}
  }
}