{
  "contractName": "TodoList",
  "abi": [
    {
      "constant": true,
      "inputs": [
        {
          "name": "",
          "type": "uint256"
        }
      ],
      "name": "tasks",
      "outputs": [
        {
          "name": "id",
          "type": "uint8"
        },
        {
          "name": "title",
          "type": "string"
        },
        {
          "name": "description",
          "type": "string"
        },
        {
          "name": "state",
          "type": "uint8"
        },
        {
          "name": "deadline",
          "type": "uint256"
        },
        {
          "name": "rating",
          "type": "uint8"
        }
      ],
      "payable": false,
      "stateMutability": "view",
      "type": "function"
    },
    {
      "inputs": [],
      "payable": false,
      "stateMutability": "nonpayable",
      "type": "constructor"
    },
    {
      "anonymous": false,
      "inputs": [
        {
          "indexed": false,
          "name": "id",
          "type": "uint256"
        },
        {
          "indexed": false,
          "name": "title",
          "type": "string"
        },
        {
          "indexed": false,
          "name": "state",
          "type": "uint8"
        }
      ],
      "name": "TaskCreated",
      "type": "event"
    },
    {
      "anonymous": false,
      "inputs": [
        {
          "indexed": false,
          "name": "id",
          "type": "uint256"
        },
        {
          "indexed": false,
          "name": "state",
          "type": "uint8"
        }
      ],
      "name": "TaskState",
      "type": "event"
    },
    {
      "constant": false,
      "inputs": [
        {
          "name": "_title",
          "type": "string"
        },
        {
          "name": "_description",
          "type": "string"
        }
      ],
      "name": "createTask",
      "outputs": [],
      "payable": false,
      "stateMutability": "nonpayable",
      "type": "function"
    },
    {
      "constant": true,
      "inputs": [
        {
          "name": "_id",
          "type": "uint8"
        }
      ],
      "name": "getValidators",
      "outputs": [
        {
          "name": "validators",
          "type": "address[]"
        }
      ],
      "payable": false,
      "stateMutability": "view",
      "type": "function"
    },
    {
      "constant": false,
      "inputs": [
        {
          "name": "_id",
          "type": "uint256"
        },
        {
          "name": "_validators",
          "type": "address[]"
        }
      ],
      "name": "addValidators",
      "outputs": [],
      "payable": false,
      "stateMutability": "nonpayable",
      "type": "function"
    },
    {
      "constant": false,
      "inputs": [
        {
          "name": "_id",
          "type": "uint256"
        }
      ],
      "name": "acceptTask",
      "outputs": [],
      "payable": false,
      "stateMutability": "nonpayable",
      "type": "function"
    },
    {
      "constant": false,
      "inputs": [
        {
          "name": "_id",
          "type": "uint256"
        }
      ],
      "name": "completeTask",
      "outputs": [],
      "payable": false,
      "stateMutability": "nonpayable",
      "type": "function"
    },
    {
      "constant": false,
      "inputs": [
        {
          "name": "_id",
          "type": "uint256"
        }
      ],
      "name": "reviewTask",
      "outputs": [],
      "payable": false,
      "stateMutability": "nonpayable",
      "type": "function"
    },
    {
      "constant": false,
      "inputs": [
        {
          "name": "_id",
          "type": "uint256"
        }
      ],
      "name": "toggleStarted",
      "outputs": [],
      "payable": false,
      "stateMutability": "nonpayable",
      "type": "function"
    }
  ],
  "bytecode": "0x6101e060405260006080908152600160a0819052600260c052600360e05260046101005260056101205260066101405260076101605260086101805260096101a052600a6101c05261005291600b61006f565b5034801561005f57600080fd5b506000805460ff19169055610136565b82805482825590600052602060002090601f016020900481019282156101055791602002820160005b838211156100d657835183826101000a81548160ff021916908360ff1602179055509260200192600101602081600001049283019260010302610098565b80156101035782816101000a81549060ff02191690556001016020816000010492830192600103026100d6565b505b50610111929150610115565b5090565b61013391905b8082111561011157805460ff1916815560010161011b565b90565b610add806101456000396000f3fe608060405234801561001057600080fd5b50600436106100885760003560e01c80638cc05eda1161005b5780638cc05eda146102835780638d977672146102f3578063984c2d7214610424578063e1e295581461008d57610088565b80631bf6912d1461008d578063292a4585146100ac5780632e85d430146101d95780637a40bbef1461008d575b600080fd5b6100aa600480360360208110156100a357600080fd5b5035610441565b005b6100aa600480360360408110156100c257600080fd5b8101906020810181356401000000008111156100dd57600080fd5b8201836020820111156100ef57600080fd5b8035906020019184600183028401116401000000008311171561011157600080fd5b91908080601f016020809104026020016040519081016040528093929190818152602001838380828437600092019190915250929594936020810193503591505064010000000081111561016457600080fd5b82018360208201111561017657600080fd5b8035906020019184600183028401116401000000008311171561019857600080fd5b91908080601f016020809104026020016040519081016040528093929190818152602001838380828437600092019190915250929550610444945050505050565b6100aa600480360360408110156101ef57600080fd5b8135919081019060408101602082013564010000000081111561021157600080fd5b82018360208201111561022357600080fd5b8035906020019184602083028401116401000000008311171561024557600080fd5b919080806020026020016040519081016040528093929190818152602001838360200280828437600092019190915250929550610682945050505050565b6102a36004803603602081101561029957600080fd5b503560ff166106f6565b60408051602080825283518183015283519192839290830191858101910280838360005b838110156102df5781810151838201526020016102c7565b505050509050019250505060405180910390f35b6103106004803603602081101561030957600080fd5b5035610769565b604051808760ff1660ff168152602001806020018060200186600381111561033457fe5b60ff1681526020018581526020018460ff1660ff168152602001838103835288818151815260200191508051906020019080838360005b8381101561038357818101518382015260200161036b565b50505050905090810190601f1680156103b05780820380516001836020036101000a031916815260200191505b50838103825287518152875160209182019189019080838360005b838110156103e35781810151838201526020016103cb565b50505050905090810190601f1680156104105780820380516001836020036101000a031916815260200191505b509850505050505050505060405180910390f35b6100aa6004803603602081101561043a57600080fd5b50356108bf565b50565b60005460ff1661045261093b565b50604080516101008101825260ff83811680835260208084018881528486018890526000606086018190526080860181905260a086018190528651818152808401885260c08701528651818152808401885260e087015292835260028252949091208351815460ff1916931692909217825592518051929384936104dc9260018501920190610991565b50604082015180516104f8916002840191602090910190610991565b5060608201518160030160006101000a81548160ff0219169083600381111561051d57fe5b02179055506080820151600482015560a082015160058201805460ff191660ff90921691909117905560c08201518051610561916006840191602090910190610a0f565b5060e0820151805161057d916007840191602090910190610a0f565b50506000805460ff8082166001908101821660ff19909316929092178355851680835260026020908152604080852060060180549485018155855281852090930180546001600160a01b0319163317905582519182527f635eea5e1ac85102c6927bb3da243a983bf4c8139604efaf63d228e938b2b30594508693899390929182019082018360ff168152602001828103825284818151815260200191508051906020019080838360005b83811015610640578181015183820152602001610628565b50505050905090810190601f16801561066d5780820380516001836020036101000a031916815260200191505b5094505050505060405180910390a150505050565b6000828152600260205260408120905b82518110156106f057816006018382815181106106ab57fe5b60209081029190910181015182546001808201855560009485529290932090920180546001600160a01b0319166001600160a01b039093169290921790915501610692565b50505050565b60ff811660009081526002602090815260409182902060060180548351818402810184019094528084526060939283018282801561075d57602002820191906000526020600020905b81546001600160a01b0316815260019091019060200180831161073f575b50505050509050919050565b6002602081815260009283526040928390208054600180830180548751601f6000199483161561010002949094019091169690960491820185900485028601850190965280855260ff9091169491939283018282801561080a5780601f106107df5761010080835404028352916020019161080a565b820191906000526020600020905b8154815290600101906020018083116107ed57829003601f168201915b50505060028085018054604080516020601f600019610100600187161502019094169590950492830185900485028101850190915281815295969594509092509083018282801561089c5780601f106108715761010080835404028352916020019161089c565b820191906000526020600020905b81548152906001019060200180831161087f57829003601f168201915b5050505060038301546004840154600590940154929360ff918216939092501686565b6000818152600260209081526040918290206003808201805460ff191660011790819055935185815291937f469b7cfbb60619eda76c28364bf95ae0afbf0902d135a84497564f799fac00c393869360ff9092169290820190839081111561092357fe5b60ff1681526020019250505060405180910390a15050565b604051806101000160405280600060ff16815260200160608152602001606081526020016000600381111561096c57fe5b815260200160008152602001600060ff16815260200160608152602001606081525090565b828054600181600116156101000203166002900490600052602060002090601f016020900481019282601f106109d257805160ff19168380011785556109ff565b828001600101855582156109ff579182015b828111156109ff5782518255916020019190600101906109e4565b50610a0b929150610a70565b5090565b828054828255906000526020600020908101928215610a64579160200282015b82811115610a6457825182546001600160a01b0319166001600160a01b03909116178255602090920191600190910190610a2f565b50610a0b929150610a8d565b610a8a91905b80821115610a0b5760008155600101610a76565b90565b610a8a91905b80821115610a0b5780546001600160a01b0319168155600101610a9356fea165627a7a723058208e2f5e452ba25c380d5a80635bcd810ec172ca34e48a8c4afe7d7fbdc805eaf20029",
  "source": "pragma solidity ^0.5.8;\n\ncontract TodoList {\n\tuint8 task_count;\n\tenum State { created, accepted, completed, reviewed }\n\tuint8[] ratings = [0, 1, 2, 3, 4, 5, 6, 7, 8, 9, 10];\n\t// enum Difficulty { standard, advanced , expert }\n\t// enum Uncertainity { clear, uncertain, unknown }\n\n\tstruct Task {\n\t\tuint8 id;\n\t\tstring title;\n\t\tstring description;\n\t\tState state;\n\t\tuint deadline;\n\t\tuint8 rating;\n\t\taddress[] validators;\n\t\taddress[] makers;\n\t\t//uint predecessor_id;\n\t\t//uint successor_id;\n\t}\n\n\tmapping(uint => Task) public tasks;\n\n\tevent TaskCreated(\n\t\tuint id,\n\t\tstring title,\n\t\tState state\n\t);\n\n\tevent TaskState(\n\t\tuint id,\n\t\tState state\n\t);\n\n\tconstructor() public {\n\t\ttask_count = 0;\n\t}\n\n\tfunction createTask(string memory _title, string memory _description) public {\n\t\tuint8 _id = task_count;\n\t\tTask memory task = Task(_id, _title, _description, State.created, 0, 0, new address[](0), new address[](0));\n\t\ttasks[_id] = task;\n\t\ttask_count++;\n\t\ttasks[_id].validators.push(msg.sender);\n\t\temit TaskCreated(_id, _title, State.created);\n\t}\n\n\tfunction getValidators(uint8 _id) public view returns (address[] memory validators) {\n\t\treturn tasks[_id].validators;\n\t}\n\n\tfunction addValidators(uint _id, address[] memory _validators) public {\n\t\tTask storage _task = tasks[_id];\n\t\tfor (uint _i = 0; _i < _validators.length; _i++) {\n\t\t\t_task.validators.push(_validators[_i]);\n\t\t}\n\t}\n\n\tfunction acceptTask(uint _id) public {\n\n\t}\n\n\tfunction completeTask(uint _id) public {\n\n\t}\n\n\tfunction reviewTask(uint _id) public {\n\n\t}\n\n\tfunction toggleStarted(uint _id) public {\n\t\tTask storage _task = tasks[_id];\n\t\t_task.state = State.accepted;\n\t\t// tasks[_id] = _task;\n\t\temit TaskState(_id, _task.state);\n\t}\n\n}",
  "sourcePath": "/Users/pabrasey/Dropbox/01_Formation/ETHZ/01_Master/02_Projects/Master Thesis/Production/Code/ipd-tasks/contracts/TodoList.sol",
  "compiler": {
    "name": "solc",
    "version": "0.5.8+commit.23d335f2.Emscripten.clang"
  },
  "schemaVersion": "3.0.16",
  "updatedAt": "2019-11-29T19:10:12.073Z",
  "devdoc": {
    "methods": {}
  },
  "userdoc": {
    "methods": {}
  }
}