{
  "contractName": "TodoList",
  "abi": [
    {
      "anonymous": false,
      "inputs": [
        {
          "indexed": false,
          "internalType": "uint256",
          "name": "id",
          "type": "uint256"
        },
        {
          "indexed": false,
          "internalType": "string",
          "name": "title",
          "type": "string"
        },
        {
          "indexed": false,
          "internalType": "enum TodoList.State",
          "name": "state",
          "type": "uint8"
        },
        {
          "indexed": false,
          "internalType": "address[]",
          "name": "validators",
          "type": "address[]"
        }
      ],
      "name": "TaskCreated",
      "type": "event"
    },
    {
      "anonymous": false,
      "inputs": [
        {
          "indexed": false,
          "internalType": "uint8",
          "name": "id",
          "type": "uint8"
        },
        {
          "indexed": false,
          "internalType": "enum TodoList.State",
          "name": "state",
          "type": "uint8"
        }
      ],
      "name": "TaskState",
      "type": "event"
    },
    {
      "anonymous": false,
      "inputs": [
        {
          "indexed": false,
          "internalType": "bool",
          "name": "is_true",
          "type": "bool"
        }
      ],
      "name": "Test",
      "type": "event"
    },
    {
      "anonymous": false,
      "inputs": [
        {
          "indexed": false,
          "internalType": "uint8",
          "name": "task_id",
          "type": "uint8"
        },
        {
          "indexed": false,
          "internalType": "address",
          "name": "sender",
          "type": "address"
        },
        {
          "indexed": false,
          "internalType": "address",
          "name": "receiver",
          "type": "address"
        },
        {
          "indexed": false,
          "internalType": "uint256",
          "name": "amount",
          "type": "uint256"
        }
      ],
      "name": "taskFunded",
      "type": "event"
    },
    {
      "anonymous": false,
      "inputs": [
        {
          "indexed": false,
          "internalType": "uint8",
          "name": "task_id",
          "type": "uint8"
        },
        {
          "indexed": false,
          "internalType": "address",
          "name": "validator",
          "type": "address"
        }
      ],
      "name": "validatorAdded",
      "type": "event"
    },
    {
      "constant": true,
      "inputs": [],
      "name": "task_count",
      "outputs": [
        {
          "internalType": "uint8",
          "name": "",
          "type": "uint8"
        }
      ],
      "payable": false,
      "stateMutability": "view",
      "type": "function"
    },
    {
      "constant": true,
      "inputs": [
        {
          "internalType": "uint256",
          "name": "",
          "type": "uint256"
        }
      ],
      "name": "tasks",
      "outputs": [
        {
          "internalType": "uint8",
          "name": "id",
          "type": "uint8"
        },
        {
          "internalType": "string",
          "name": "title",
          "type": "string"
        },
        {
          "internalType": "string",
          "name": "description",
          "type": "string"
        },
        {
          "internalType": "enum TodoList.State",
          "name": "state",
          "type": "uint8"
        },
        {
          "internalType": "uint256",
          "name": "deadline",
          "type": "uint256"
        },
        {
          "internalType": "uint8",
          "name": "rating",
          "type": "uint8"
        },
        {
          "internalType": "contract Escrow",
          "name": "escrow",
          "type": "address"
        }
      ],
      "payable": false,
      "stateMutability": "view",
      "type": "function"
    },
    {
      "constant": false,
      "inputs": [
        {
          "internalType": "string",
          "name": "_title",
          "type": "string"
        },
        {
          "internalType": "string",
          "name": "_description",
          "type": "string"
        }
      ],
      "name": "createTask",
      "outputs": [],
      "payable": false,
      "stateMutability": "nonpayable",
      "type": "function"
    },
    {
      "constant": true,
      "inputs": [
        {
          "internalType": "uint8",
          "name": "_id",
          "type": "uint8"
        }
      ],
      "name": "getValidators",
      "outputs": [
        {
          "internalType": "address[]",
          "name": "",
          "type": "address[]"
        }
      ],
      "payable": false,
      "stateMutability": "view",
      "type": "function"
    },
    {
      "constant": false,
      "inputs": [
        {
          "internalType": "uint8",
          "name": "_task_id",
          "type": "uint8"
        },
        {
          "internalType": "address",
          "name": "_validator",
          "type": "address"
        }
      ],
      "name": "addValidators",
      "outputs": [],
      "payable": false,
      "stateMutability": "nonpayable",
      "type": "function"
    },
    {
      "constant": false,
      "inputs": [
        {
          "internalType": "uint8",
          "name": "_task_id",
          "type": "uint8"
        }
      ],
      "name": "fundTaskEscrow",
      "outputs": [],
      "payable": true,
      "stateMutability": "payable",
      "type": "function"
    },
    {
      "constant": true,
      "inputs": [
        {
          "internalType": "uint8",
          "name": "_task_id",
          "type": "uint8"
        }
      ],
      "name": "getTaskEscrow",
      "outputs": [
        {
          "internalType": "uint256",
          "name": "",
          "type": "uint256"
        }
      ],
      "payable": false,
      "stateMutability": "view",
      "type": "function"
    },
    {
      "constant": false,
      "inputs": [
        {
          "internalType": "uint256",
          "name": "_id",
          "type": "uint256"
        }
      ],
      "name": "acceptTask",
      "outputs": [],
      "payable": false,
      "stateMutability": "nonpayable",
      "type": "function"
    },
    {
      "constant": false,
      "inputs": [
        {
          "internalType": "uint256",
          "name": "_id",
          "type": "uint256"
        }
      ],
      "name": "completeTask",
      "outputs": [],
      "payable": false,
      "stateMutability": "nonpayable",
      "type": "function"
    },
    {
      "constant": false,
      "inputs": [
        {
          "internalType": "uint256",
          "name": "_id",
          "type": "uint256"
        }
      ],
      "name": "reviewTask",
      "outputs": [],
      "payable": false,
      "stateMutability": "nonpayable",
      "type": "function"
    },
    {
      "constant": false,
      "inputs": [
        {
          "internalType": "uint8",
          "name": "_id",
          "type": "uint8"
        }
      ],
      "name": "toggleStarted",
      "outputs": [],
      "payable": false,
      "stateMutability": "nonpayable",
      "type": "function"
    }
  ],
  "bytecode": "0x6000805460ff191681556101e06040526080908152600160a0819052600260c052600360e05260046101005260056101205260066101405260076101605260086101805260096101a052600a6101c0526200005c91600b62000071565b503480156200006a57600080fd5b5062000142565b82805482825590600052602060002090601f016020900481019282156200010c5791602002820160005b83821115620000db57835183826101000a81548160ff021916908360ff16021790555092602001926001016020816000010492830192600103026200009b565b80156200010a5782816101000a81549060ff0219169055600101602081600001049283019260010302620000db565b505b506200011a9291506200011e565b5090565b6200013f91905b808211156200011a57805460ff1916815560010162000125565b90565b6119c880620001526000396000f3fe60806040526004361061009c5760003560e01c80638d977672116100645780638d977672146102c0578063b343525114610417578063ceda812c14610442578063d589a2741461046f578063e1cbb56f1461048f578063e1e29558146100a15761009c565b80631bf6912d146100a1578063292a4585146100cd5780637a40bbef146100a15780638784d901146102075780638cc05eda14610243575b600080fd5b3480156100ad57600080fd5b506100cb600480360360208110156100c457600080fd5b50356104ce565b005b3480156100d957600080fd5b506100cb600480360360408110156100f057600080fd5b81019060208101813564010000000081111561010b57600080fd5b82018360208201111561011d57600080fd5b8035906020019184600183028401116401000000008311171561013f57600080fd5b91908080601f016020809104026020016040519081016040528093929190818152602001838380828437600092019190915250929594936020810193503591505064010000000081111561019257600080fd5b8201836020820111156101a457600080fd5b803590602001918460018302840111640100000000831117156101c657600080fd5b91908080601f0160208091040260200160405190810160405280939291908181526020018383808284376000920191909152509295506104d1945050505050565b34801561021357600080fd5b506100cb6004803603604081101561022a57600080fd5b50803560ff1690602001356001600160a01b03166107cb565b34801561024f57600080fd5b506102706004803603602081101561026657600080fd5b503560ff16610957565b60408051602080825283518183015283519192839290830191858101910280838360005b838110156102ac578181015183820152602001610294565b505050509050019250505060405180910390f35b3480156102cc57600080fd5b506102ea600480360360208110156102e357600080fd5b50356109ca565b604051808860ff1660ff168152602001806020018060200187600381111561030e57fe5b60ff1681526020018681526020018560ff1660ff168152602001846001600160a01b03166001600160a01b03168152602001838103835289818151815260200191508051906020019080838360005b8381101561037557818101518382015260200161035d565b50505050905090810190601f1680156103a25780820380516001836020036101000a031916815260200191505b5083810382528851815288516020918201918a019080838360005b838110156103d55781810151838201526020016103bd565b50505050905090810190601f1680156104025780820380516001836020036101000a031916815260200191505b50995050505050505050505060405180910390f35b34801561042357600080fd5b5061042c610b31565b6040805160ff9092168252519081900360200190f35b34801561044e57600080fd5b506100cb6004803603602081101561046557600080fd5b503560ff16610b3a565b6100cb6004803603602081101561048557600080fd5b503560ff16610bbb565b34801561049b57600080fd5b506104bc600480360360208110156104b257600080fd5b503560ff16610cd4565b60408051918252519081900360200190f35b50565b60005460ff166104df611012565b604080516101208101825260ff8416815260208082018790528183018690526000606083018190526080830181905260a083018190528351818152808301855260c08401528351908152908101835260e082015290516101008201906105449061106b565b604051809103906000f080158015610560573d6000803e3d6000fd5b506001600160a01b0316905260ff83811660009081526002602090815260409091208351815460ff1916931692909217825582810151805193945084936105ad9260018501920190611078565b50604082015180516105c9916002840191602090910190611078565b5060608201518160030160006101000a81548160ff021916908360038111156105ee57fe5b02179055506080820151600482015560a082015160058201805460ff191660ff90921691909117905560c082015180516106329160068401916020909101906110f6565b5060e0820151805161064e9160078401916020909101906110f6565b506101009190910151600890910180546001600160a01b039092166001600160a01b03199283161790556000805460ff8082166001908101821660ff199093169290921783558516808352600260209081526040808520600601805494850181558086528286209094018054909616331790955581845284519182527fed590dc695d4f7e656b37899068d46e3eafc741b38eb6a6761d919deba842bc69487948a949093909290919082019082018460ff16815260200180602001838103835286818151815260200191508051906020019080838360005b8381101561073e578181015183820152602001610726565b50505050905090810190601f16801561076b5780820380516001836020036101000a031916815260200191505b5083810382528481815481526020019150805480156107b357602002820191906000526020600020905b81546001600160a01b03168152600190910190602001808311610795575b5050965050505050505060405180910390a150505050565b60ff82166000908152600260209081526040808320600601805482518185028101850190935280835286949360609392919083018282801561083657602002820191906000526020600020905b81546001600160a01b03168152600190910190602001808311610818575b50939450600093505050505b81518160ff16101561088b57818160ff168151811061085d57fe5b60200260200101516001600160a01b0316336001600160a01b0316141561088357600192505b600101610842565b506001821515146108cd5760405162461bcd60e51b815260040180806020018281038252602681526020018061196e6026913960400191505060405180910390fd5b60ff851660008181526002602090815260408083206006810180546001810182559085529383902090930180546001600160a01b0319166001600160a01b038a16908117909155815194855291840191909152805191927f3a092f075833e4228e6f48d3dcbc28cdb68d243278dcd79cfaa17473e2f60140929081900390910190a1505050505050565b60ff81166000908152600260209081526040918290206006018054835181840281018401909452808452606093928301828280156109be57602002820191906000526020600020905b81546001600160a01b031681526001909101906020018083116109a0575b50505050509050919050565b6002602081815260009283526040928390208054600180830180548751601f6000199483161561010002949094019091169690960491820185900485028601850190965280855260ff90911694919392830182828015610a6b5780601f10610a4057610100808354040283529160200191610a6b565b820191906000526020600020905b815481529060010190602001808311610a4e57829003601f168201915b50505060028085018054604080516020601f6000196101006001871615020190941695909504928301859004850281018501909152818152959695945090925090830182828015610afd5780601f10610ad257610100808354040283529160200191610afd565b820191906000526020600020905b815481529060010190602001808311610ae057829003601f168201915b505050600384015460048501546005860154600890960154949560ff9283169591945090911691506001600160a01b031687565b60005460ff1681565b60ff8181166000818152600260209081526040918290206003808201805460ff191660011790819055935194855290947f7297a3ecec23f9c0ce7ae4bb6605545c7270ad1985ee7f625c426ea8325356b9948794909116929091908201908390811115610ba357fe5b60ff1681526020019250505060405180910390a15050565b60ff81166000908152600260205260408120600881015460078201805492936001600160a01b039092169263f340fa0192349291610bf557fe5b6000918252602082200154604080516001600160e01b031960e087901b1681526001600160a01b039092166004830152516024808301939282900301818588803b158015610c4257600080fd5b505af1158015610c56573d6000803e3d6000fd5b50505050507fcda5eeafa952e3fdd7a0e022ea09c83508806df2b916c7b784ea0dfb7bc2da2c823383600701600081548110610c8e57fe5b600091825260209182902001546040805160ff90951685526001600160a01b03938416928501929092529190911682820152346060830152519081900360800190a15050565b6000610cde611012565b60ff838116600090815260026020818152604092839020835161012081018552815490951685526001808201805486516101009382161593909302600019011694909404601f81018490048402820184019095528481529093858301939192830182828015610d8e5780601f10610d6357610100808354040283529160200191610d8e565b820191906000526020600020905b815481529060010190602001808311610d7157829003601f168201915b5050509183525050600282810180546040805160206001841615610100026000190190931694909404601f81018390048302850183019091528084529381019390830182828015610e205780601f10610df557610100808354040283529160200191610e20565b820191906000526020600020905b815481529060010190602001808311610e0357829003601f168201915b505050918352505060038281015460209092019160ff1690811115610e4157fe5b6003811115610e4c57fe5b8152602001600482015481526020016005820160009054906101000a900460ff1660ff1660ff16815260200160068201805480602002602001604051908101604052809291908181526020018280548015610ed057602002820191906000526020600020905b81546001600160a01b03168152600190910190602001808311610eb2575b5050505050815260200160078201805480602002602001604051908101604052809291908181526020018280548015610f3257602002820191906000526020600020905b81546001600160a01b03168152600190910190602001808311610f14575b505050505081526020016008820160009054906101000a90046001600160a01b03166001600160a01b03166001600160a01b03168152505090508061010001516001600160a01b031663e3a9db1a8260e00151600081518110610f9157fe5b60200260200101516040518263ffffffff1660e01b815260040180826001600160a01b03166001600160a01b0316815260200191505060206040518083038186803b158015610fdf57600080fd5b505afa158015610ff3573d6000803e3d6000fd5b505050506040513d602081101561100957600080fd5b50519392505050565b604051806101200160405280600060ff16815260200160608152602001606081526020016000600381111561104357fe5b8152600060208201819052604082018190526060808301819052608083015260a09091015290565b6107d58061119983390190565b828054600181600116156101000203166002900490600052602060002090601f016020900481019282601f106110b957805160ff19168380011785556110e6565b828001600101855582156110e6579182015b828111156110e65782518255916020019190600101906110cb565b506110f2929150611157565b5090565b82805482825590600052602060002090810192821561114b579160200282015b8281111561114b57825182546001600160a01b0319166001600160a01b03909116178255602090920191600190910190611116565b506110f2929150611174565b61117191905b808211156110f2576000815560010161115d565b90565b61117191905b808211156110f25780546001600160a01b031916815560010161117a56fe60806040526100156001600160e01b0361006f16565b600080546001600160a01b0319166001600160a01b0392831617908190556040805191909216815290517f4101e71e974f68df5e9730cc223280b41654676bbb052cdcc735c3337e64d2d9916020908290030190a1610073565b3390565b610753806100826000396000f3fe6080604052600436106100555760003560e01c80632348238c1461005a57806351cff8d91461008f5780636809691a146100c2578063c6dbdf61146100f5578063e3a9db1a14610126578063f340fa011461016b575b600080fd5b34801561006657600080fd5b5061008d6004803603602081101561007d57600080fd5b50356001600160a01b0316610191565b005b34801561009b57600080fd5b5061008d600480360360208110156100b257600080fd5b50356001600160a01b0316610289565b3480156100ce57600080fd5b5061008d600480360360208110156100e557600080fd5b50356001600160a01b0316610370565b34801561010157600080fd5b5061010a61043a565b604080516001600160a01b039092168252519081900360200190f35b34801561013257600080fd5b506101596004803603602081101561014957600080fd5b50356001600160a01b0316610449565b60408051918252519081900360200190f35b61008d6004803603602081101561018157600080fd5b50356001600160a01b0316610464565b6000546001600160a01b03166101a561053e565b6001600160a01b0316146101ea5760405162461bcd60e51b815260040180806020018281038252602c8152602001806106f3602c913960400191505060405180910390fd5b6001600160a01b03811661022f5760405162461bcd60e51b815260040180806020018281038252602a8152602001806106c9602a913960400191505060405180910390fd5b600080546001600160a01b0319166001600160a01b03838116919091179182905560408051929091168252517f4101e71e974f68df5e9730cc223280b41654676bbb052cdcc735c3337e64d2d9916020908290030190a150565b6000546001600160a01b031661029d61053e565b6001600160a01b0316146102e25760405162461bcd60e51b815260040180806020018281038252602c8152602001806106f3602c913960400191505060405180910390fd5b6001600160a01b038116600081815260016020526040808220805490839055905190929183156108fc02918491818181858888f1935050505015801561032c573d6000803e3d6000fd5b506040805182815290516001600160a01b038416917f7084f5476618d8e60b11ef0d7d3f06914655adb8793e28ff7f018d4c76d505d5919081900360200190a25050565b6000546001600160a01b031661038461053e565b6001600160a01b0316146103c95760405162461bcd60e51b815260040180806020018281038252602c8152602001806106f3602c913960400191505060405180910390fd5b6001600160a01b03811660008181526001602052604081208054919055906103f7908263ffffffff61054216565b6040805182815290516001600160a01b038416917f7084f5476618d8e60b11ef0d7d3f06914655adb8793e28ff7f018d4c76d505d5919081900360200190a25050565b6000546001600160a01b031690565b6001600160a01b031660009081526001602052604090205490565b6000546001600160a01b031661047861053e565b6001600160a01b0316146104bd5760405162461bcd60e51b815260040180806020018281038252602c8152602001806106f3602c913960400191505060405180910390fd5b6001600160a01b03811660009081526001602052604090205434906104e8908263ffffffff61062d16565b6001600160a01b038316600081815260016020908152604091829020939093558051848152905191927f2da466a7b24304f47e87fa2e1e5a81b9831ce54fec19055ce277ca2f39ba42c492918290030190a25050565b3390565b3031811115610598576040805162461bcd60e51b815260206004820152601d60248201527f416464726573733a20696e73756666696369656e742062616c616e6365000000604482015290519081900360640190fd5b6040516000906001600160a01b0384169083908381818185875af1925050503d80600081146105e3576040519150601f19603f3d011682016040523d82523d6000602084013e6105e8565b606091505b50509050806106285760405162461bcd60e51b815260040180806020018281038252603a81526020018061068f603a913960400191505060405180910390fd5b505050565b600082820183811015610687576040805162461bcd60e51b815260206004820152601b60248201527f536166654d6174683a206164646974696f6e206f766572666c6f770000000000604482015290519081900360640190fd5b939250505056fe416464726573733a20756e61626c6520746f2073656e642076616c75652c20726563697069656e74206d617920686176652072657665727465645365636f6e646172793a206e6577207072696d61727920697320746865207a65726f20616464726573735365636f6e646172793a2063616c6c6572206973206e6f7420746865207072696d617279206163636f756e74a265627a7a72315820e2e0f12b4280796deb43aa94295cb140c748a0ce52d04a9a8c5c83bc21d76e3b64736f6c634300050c003263616c6c6572206973206e6f7420612076616c696461746f72206f662074686973207461736ba265627a7a723158203fa1e6187e7fd91fa7dff56bf55a46d1aa5c70ff949f69be73433142f723c17c64736f6c634300050c0032",
  "source": "pragma solidity ^0.5.11;\n\nimport '../node_modules/@openzeppelin/contracts/payment/escrow/Escrow.sol';\n\ncontract TodoList {\n\tuint8 public task_count = 0;\n\tenum State { created, accepted, completed, reviewed }\n\tuint8[] ratings = [0, 1, 2, 3, 4, 5, 6, 7, 8, 9, 10];\n\t// enum Difficulty { standard, advanced , expert }\n\t// enum Uncertainity { clear, uncertain, unknown }\n\n\tstruct Task {\n\t\tuint8 id;\n\t\tstring title;\n\t\tstring description;\n\t\tState state;\n\t\tuint deadline;\n\t\tuint8 rating;\n\t\taddress[] validators;\n\t\taddress[] workers;\n\t\tEscrow escrow;\n\t\t//uint predecessor_id;\n\t\t//uint successor_id;\n\t}\n\n\tmapping(uint => Task) public tasks;\n\n\tevent TaskCreated(\n\t\tuint id,\n\t\tstring title,\n\t\tState state,\n\t\taddress[] validators\n\t);\n\n\tevent Test(bool is_true);\n\n\tmodifier validatorsOnly(uint8 _id) {\n\t\t// checks that the sender is a validator of task with id _id\n\t\tbool is_validator = false;\n\t\taddress[] memory _validators = tasks[_id].validators;\n\t\tfor (uint8 _i = 0; _i < _validators.length; _i++) {\n\t\t\tif (msg.sender == _validators[_i]) {\n\t\t\t\tis_validator = true;\n\t\t\t}\n\t\t}\n\t\trequire(is_validator == true, \"caller is not a validator of this task\");\n\t\t_;\n\t}\n\n\tevent TaskState(\n\t\tuint8 id,\n\t\tState state\n\t);\n\n\tevent validatorAdded(\n\t\tuint8 task_id,\n\t\taddress validator\n\t);\n\n\tevent taskFunded(\n\t\tuint8 task_id,\n\t\taddress sender,\n\t\taddress receiver,\n\t\tuint256 amount\n\t);\n\n\tfunction createTask(string memory _title, string memory _description) public {\n\t\tuint8 _id = task_count;\n\t\tTask memory task = Task(_id, _title, _description, State.created, 0, 0, new address[](0), new address[](0), new Escrow());\n\t\t// https://medium.com/loom-network/ethereum-solidity-memory-vs-storage-how-to-initialize-an-array-inside-a-struct-184baf6aa2eb\n\t\ttasks[_id] = task;\n\t\ttask_count++;\n\t\ttasks[_id].validators.push(msg.sender);\n\t\temit TaskCreated(_id, _title, State.created, tasks[_id].validators);\n\t}\n\n\tfunction getValidators(uint8 _id) public view returns (address[] memory) {\n\t\treturn tasks[_id].validators;\n\t}\n\n\tfunction addValidators(uint8 _task_id, address _validator) public validatorsOnly(_task_id) {\n\t\tTask storage _task = tasks[_task_id];\n\t\t_task.validators.push(_validator);\n\t\temit validatorAdded(_task_id, _validator);\n\t\t/*\n\t\tfor (uint _i = 0; _i < _validators.length; _i++) {\n\t\t\t_task.validators.push(_validators[_i]);\n\t\t}\n\t\t*/\n\t}\n\n\tfunction fundTaskEscrow(uint8 _task_id) public payable {\n\t\t// stores funds for the given task its corresponding escrow\n\t\tTask storage _task = tasks[_task_id];\n\t\t_task.escrow.deposit.value(msg.value)(_task.workers[0]);\n\t\t// the 1st worker will get the payment -> add split payment later\n\t\temit taskFunded(_task_id, msg.sender, _task.workers[0], msg.value);\n\t}\n\n\tfunction getTaskEscrow(uint8 _task_id) public view returns (uint256) {\n\t\tTask memory _task = tasks[_task_id];\n\t\treturn _task.escrow.depositsOf(_task.workers[0]);\n\t}\n\n\tfunction acceptTask(uint _id) public {\n\n\t}\n\n\tfunction completeTask(uint _id) public {\n\n\t}\n\n\tfunction reviewTask(uint _id) public {\n\n\t}\n\n\tfunction toggleStarted(uint8 _id) public {\n\t\tTask storage _task = tasks[_id];\n\t\t_task.state = State.accepted;\n\t\t// tasks[_id] = _task;\n\t\temit TaskState(_id, _task.state);\n\t}\n\n}",
  "sourcePath": "/Users/pabrasey/Dropbox/01_Formation/ETHZ/01_Master/02_Projects/Master Thesis/Production/Code/ipd-tasks/contracts/TodoList.sol",
  "compiler": {
    "name": "solc",
    "version": "0.5.12+commit.7709ece9.Emscripten.clang"
  },
  "schemaVersion": "3.0.19",
  "updatedAt": "2019-12-03T08:11:54.663Z",
  "networkType": "ethereum",
  "devdoc": {
    "methods": {}
  },
  "userdoc": {
    "methods": {}
  }
}