{
  "contractName": "TodoList",
  "abi": [
    {
      "constant": true,
      "inputs": [
        {
          "name": "",
          "type": "uint256"
        }
      ],
      "name": "tasks",
      "outputs": [
        {
          "name": "id",
          "type": "uint256"
        },
        {
          "name": "content",
          "type": "string"
        },
        {
          "name": "state",
          "type": "uint8"
        }
      ],
      "payable": false,
      "stateMutability": "view",
      "type": "function"
    },
    {
      "constant": true,
      "inputs": [],
      "name": "taskCount",
      "outputs": [
        {
          "name": "",
          "type": "uint256"
        }
      ],
      "payable": false,
      "stateMutability": "view",
      "type": "function"
    },
    {
      "inputs": [],
      "payable": false,
      "stateMutability": "nonpayable",
      "type": "constructor"
    },
    {
      "anonymous": false,
      "inputs": [
        {
          "indexed": false,
          "name": "id",
          "type": "uint256"
        },
        {
          "indexed": false,
          "name": "content",
          "type": "string"
        },
        {
          "indexed": false,
          "name": "state",
          "type": "uint8"
        }
      ],
      "name": "TaskCreated",
      "type": "event"
    },
    {
      "anonymous": false,
      "inputs": [
        {
          "indexed": false,
          "name": "id",
          "type": "uint256"
        },
        {
          "indexed": false,
          "name": "state",
          "type": "uint8"
        }
      ],
      "name": "TaskState",
      "type": "event"
    },
    {
      "constant": false,
      "inputs": [
        {
          "name": "_content",
          "type": "string"
        }
      ],
      "name": "createTask",
      "outputs": [],
      "payable": false,
      "stateMutability": "nonpayable",
      "type": "function"
    },
    {
      "constant": false,
      "inputs": [
        {
          "name": "_id",
          "type": "uint256"
        }
      ],
      "name": "toggleStarted",
      "outputs": [],
      "payable": false,
      "stateMutability": "nonpayable",
      "type": "function"
    }
  ],
  "bytecode": "0x60806040526000805534801561001457600080fd5b506100596040518060400160405280601381526020017f436865636b206f7574206272617365792e63680000000000000000000000000081525061005e60201b60201c565b61022d565b6000805460010180825560408051606081018252918252602082018490529091908201526000805481526001602081815260409092208351815583830151805191936100af93850192910190610192565b50604082015160028201805460ff191660018360038111156100cd57fe5b02179055509050507f635eea5e1ac85102c6927bb3da243a983bf4c8139604efaf63d228e938b2b305600054826000604051808481526020018060200183600381111561011657fe5b60ff168152602001828103825284818151815260200191508051906020019080838360005b8381101561015357818101518382015260200161013b565b50505050905090810190601f1680156101805780820380516001836020036101000a031916815260200191505b5094505050505060405180910390a150565b828054600181600116156101000203166002900490600052602060002090601f016020900481019282601f106101d357805160ff1916838001178555610200565b82800160010185558215610200579182015b828111156102005782518255916020019190600101906101e5565b5061020c929150610210565b5090565b61022a91905b8082111561020c5760008155600101610216565b90565b6106518061023c6000396000f3fe608060405234801561001057600080fd5b506004361061004c5760003560e01c8063111002aa146100515780638d977672146100f9578063984c2d72146101aa578063b6cb58a5146101c7575b600080fd5b6100f76004803603602081101561006757600080fd5b81019060208101813564010000000081111561008257600080fd5b82018360208201111561009457600080fd5b803590602001918460018302840111640100000000831117156100b657600080fd5b91908080601f0160208091040260200160405190810160405280939291908181526020018383808284376000920191909152509295506101e1945050505050565b005b6101166004803603602081101561010f57600080fd5b5035610315565b604051808481526020018060200183600381111561013057fe5b60ff168152602001828103825284818151815260200191508051906020019080838360005b8381101561016d578181015183820152602001610155565b50505050905090810190601f16801561019a5780820380516001836020036101000a031916815260200191505b5094505050505060405180910390f35b6100f7600480360360208110156101c057600080fd5b50356103c4565b6101cf610559565b60408051918252519081900360200190f35b6000805460010180825560408051606081018252918252602082018490529091908201526000805481526001602081815260409092208351815583830151805191936102329385019291019061055f565b50604082015160028201805460ff1916600183600381111561025057fe5b02179055509050507f635eea5e1ac85102c6927bb3da243a983bf4c8139604efaf63d228e938b2b305600054826000604051808481526020018060200183600381111561029957fe5b60ff168152602001828103825284818151815260200191508051906020019080838360005b838110156102d65781810151838201526020016102be565b50505050905090810190601f1680156103035780820380516001836020036101000a031916815260200191505b5094505050505060405180910390a150565b600160208181526000928352604092839020805481840180548651600296821615610100026000190190911695909504601f810185900485028601850190965285855290949193929091908301828280156103b15780601f10610386576101008083540402835291602001916103b1565b820191906000526020600020905b81548152906001019060200180831161039457829003601f168201915b5050506002909301549192505060ff1683565b6103cc6105dd565b60008281526001602081815260409283902083516060810185528154815281840180548651600296821615610100026000190190911695909504601f810185900485028601850190965285855290949193858401939092908301828280156104755780601f1061044a57610100808354040283529160200191610475565b820191906000526020600020905b81548152906001019060200180831161045857829003601f168201915b5050509183525050600282015460209091019060ff16600381111561049657fe5b60038111156104a157fe5b905250905060016040820181905250600082815260016020818152604090922083518155828401518051859492936104de9390850192019061055f565b50604082015160028201805460ff191660018360038111156104fc57fe5b02179055509050507f469b7cfbb60619eda76c28364bf95ae0afbf0902d135a84497564f799fac00c38282604001516040518083815260200182600381111561054157fe5b60ff1681526020019250505060405180910390a15050565b60005481565b828054600181600116156101000203166002900490600052602060002090601f016020900481019282601f106105a057805160ff19168380011785556105cd565b828001600101855582156105cd579182015b828111156105cd5782518255916020019190600101906105b2565b506105d9929150610608565b5090565b604051806060016040528060008152602001606081526020016000600381111561060357fe5b905290565b61062291905b808211156105d9576000815560010161060e565b9056fea165627a7a72305820e3ff1bca50d61dc084ea7b3a238c4f785e5d8b69fdbd76457924c0414a42e95d0029",
  "source": "pragma solidity ^0.5.0;\n\ncontract TodoList {\n\tuint public taskCount = 0;\n\tenum State { created, started, completed, validated }\n\n\tstruct Task {\n\t\tuint id;\n\t\tstring content;\n\t\tState state;\n\t}\n\n\tmapping(uint => Task) public tasks;\n\n\tevent TaskCreated(\n\t\tuint id,\n\t\tstring content,\n\t\tState state\n\t);\n\n\tevent TaskState(\n\t\tuint id,\n\t\tState state\n\t);\n\n\tconstructor() public {\n\t\tcreateTask(\"Check out brasey.ch\");\n\t}\n\n\tfunction createTask(string memory _content) public {\n\t\ttaskCount ++;\n\t\ttasks[taskCount] = Task(taskCount, _content, State.created);\n\t\temit TaskCreated(taskCount, _content, State.created);\n\t}\n\n\tfunction toggleStarted(uint _id) public {\n\t\tTask memory _task = tasks[_id];\n\t\t_task.state = State.started;\n\t\ttasks[_id] = _task;\n\t\temit TaskState(_id, _task.state);\n\t}\n\n}",
  "sourcePath": "/Users/pabrasey/Dropbox/01_Formation/ETHZ/01_Master/02_Projects/Master Thesis/Production/Code/ipd-tasks/contracts/TodoList.sol",
  "compiler": {
    "name": "solc",
    "version": "0.5.8+commit.23d335f2.Emscripten.clang"
  },
  "schemaVersion": "3.0.16",
  "updatedAt": "2019-11-27T18:54:43.020Z",
  "devdoc": {
    "methods": {}
  },
  "userdoc": {
    "methods": {}
  }
}